{
    "contractName": "HelloWorldContract",
    "abi": [
        {
            "inputs": [],
            "name": "getWord",
            "outputs": [
                {
                    "internalType": "string",
                    "name": "",
                    "type": "string"
                }
            ],
            "stateMutability": "view",
            "type": "function"
        },
        {
            "inputs": [
                {
                    "internalType": "string",
                    "name": "newWord",
                    "type": "string"
                }
            ],
            "name": "setWord",
            "outputs": [
                {
                    "internalType": "string",
                    "name": "",
                    "type": "string"
                }
            ],
            "stateMutability": "nonpayable",
            "type": "function"
        }
    ],
    "bytecode": "6080806040523460b9575f54600181811c9116801560b0575b6020821014609c57601f81116058575b507f48656c6c6f20576f726c640000000000000000000000000000000000000000165f5561039e90816100be8239f35b5f8052601f0160051c7f290decd9548b62a8d60345a988386fc84ba6bc95484008f6362f93160ef3e563908101905b818110609257506028565b5f81556001016087565b634e487b7160e01b5f52602260045260245ffd5b90607f16906018565b5f80fdfe6080806040526004361015610012575f80fd5b5f3560e01c908163cd048de614610061575063ed40a8c814610032575f80fd5b3461005d575f36600319011261005d5761005961004d6102a7565b60405191829182610245565b0390f35b5f80fd5b3461005d57602036600319011261005d5760043567ffffffffffffffff811161005d573660238201121561005d5780600401359067ffffffffffffffff821161020f576100b8601f8301601f191660200184610223565b818352366024838301011161005d57815f926024602093018386013783010152805167ffffffffffffffff811161020f576100f35f5461026f565b601f81116101a8575b50602091601f821160011461013f579181925f92610134575b50508160011b915f199060031b1c1916175f555b61005961004d6102a7565b015190508280610115565b601f198216925f80525f5160206103495f395f51905f52915f5b85811061019057508360019510610178575b505050811b015f55610129565b01515f1960f88460031b161c1916905582808061016b565b91926020600181928685015181550194019201610159565b5f8052601f820160051c5f5160206103495f395f51905f520190602083106101fa575b601f0160051c5f5160206103495f395f51905f5201905b8181106101ef57506100fc565b5f81556001016101e2565b5f5160206103495f395f51905f5291506101cb565b634e487b7160e01b5f52604160045260245ffd5b90601f8019910116810190811067ffffffffffffffff82111761020f57604052565b602060409281835280519182918282860152018484015e5f828201840152601f01601f1916010190565b90600182811c9216801561029d575b602083101461028957565b634e487b7160e01b5f52602260045260245ffd5b91607f169161027e565b604051905f825f54916102b98361026f565b808352926001811690811561032957506001146102df575b6102dd92500383610223565b565b505f80805290915f5160206103495f395f51905f525b81831061030d5750509060206102dd928201016102d1565b60209193508060019154838589010152019101909184926102f5565b602092506102dd94915060ff191682840152151560051b8201016102d156fe290decd9548b62a8d60345a988386fc84ba6bc95484008f6362f93160ef3e563a26469706673582212202baa444fec1cd49b204de0dbff5f3839d92975970745788b3a9a4a720cb81ef964736f6c634300081c0033",
    "sourcePath": "/home/2024/rislam2/research/IPBlockchainPro/ipblockchainpro-blockchain/contracts/HelloWorld.sol",
    "compiler": {
        "name": "solc",
        "version": "0.8.28+commit.7893614a"
    },
    "functionHashes": {
        "getWord()": "ed40a8c8",
        "setWord(string)": "cd048de6"
    },
    "gasEstimates": {
        "creation": {
            "codeDepositCost": "185200",
            "executionCost": "infinite",
            "totalCost": "infinite"
        },
        "external": {
            "getWord()": "infinite",
            "setWord(string)": "infinite"
        }
    }
}